:100000000C945D000C9485000C9485000C94850084
:100010000C9485000C9485000C9485000C9485004C
:100020000C9485000C9485000C9485000C9485003C
:100030000C9485000C9485000C9485000C9485002C
:100040000C94DB030C9485000C94A9030C9483039B
:100050000C9485000C9485000C9485000C9485000C
:100060000C9485000C94850000000008000201003B
:100070000003040700000000000000000000000072
:10008000250028002B0000000000240027002A0083
:10009000040404040404040402020202020203032E
:1000A0000303030301020408102040800102040836
:1000B0001020010204081020250411241FBECFEFD8
:1000C000D8E0DEBFCDBF24E0A6EBB3E001C01D92B7
:1000D000A53BB207E1F713E0A0E0B1E0ECEFF3E1FC
:1000E00002C005900D92A63BB107D9F710E0CDE50F
:1000F000D0E004C02197FE010E94C408CC35D1078E
:10010000C9F70E9464040C94FC090C940000ECEC08
:10011000F3E0A089B18982E08C93A485B5851C9217
:10012000A685B78580E18C93108EA489B58986E079
:100130008C93A289B3898C9180618C93A289B389B5
:100140008C9188608C93A289B3898C9180688C9300
:100150000288F389E02D80818F7D80830895AC0132
:100160004A5F5F4F20E130E0FC01A191CF01722F87
:100170006627F901EE0FEF2FEE1FFF0BF195EA272F
:10018000FF27EE0FFF1FEE5EFE4F208131812627F5
:1001900037278417950741F7C901880F991F0895DC
:1001A00090E0FC01EC55FF4F2491FC01E057FF4F1C
:1001B0008491882399F090E0880F991FFC01EA57F9
:1001C000FF4FA591B491FC01E458FF4F85919491A4
:1001D0008FB7F894EC91E22BEC938FBF0895CF92F8
:1001E000DF92EF92FF920F931F93CF93DF936C01F7
:1001F0007A018B01C0E0D0E0CE15DF0589F0D8018F
:100200006D918D01D601ED91FC910190F081E02D71
:10021000C6010995892B11F47E0102C02196ECCF0D
:10022000C701DF91CF911F910F91FF90EF90DF9069
:10023000CF900895FC01918D828D981761F0828D89
:10024000DF01A80FB11D5D968C91928D9F5F9F730A
:10025000928F90E008958FEF9FEF0895FC01918DAC
:10026000828D981731F0828DE80FF11D858D90E019
:1002700008958FEF9FEF0895FC01918D228D892FB6
:1002800090E0805C9F4F821B91098F73992708959E
:100290008CEC93E00E943C0121E0892B09F420E0E2
:1002A000822F0895FC01848DDF01A80FB11DA35A90
:1002B000BF4F2C91848D90E001968F739927848F86
:1002C000A689B7892C93A089B1898C9180648C937D
:1002D000938D848D981306C00288F389E02D808168
:1002E0008F7D80830895EF92FF920F931F93CF939A
:1002F000DF93EC0181E0888F9B8D8C8D981305C076
:10030000E889F989808185FD24C0F62E0B8D10E0E7
:100310000F5F1F4F0F731127E02E8C8DE8120CC05A
:100320000FB607FCFACFE889F989808185FFF5CF00
:10033000CE010E945201F1CF8B8DFE01E80FF11D1D
:10034000E35AFF4FF0820B8FEA89FB89808180623C
:1003500007C0EE89FF896083E889F989808180641C
:10036000808381E090E0DF91CF911F910F91FF900A
:10037000EF900895CF93DF93EC01888D8823C9F027
:10038000EA89FB89808185FD05C0A889B9898C919E
:1003900086FD0FC00FB607FCF5CF808185FFF2CF39
:1003A000A889B9898C9185FFEDCFCE010E945201B9
:1003B000E7CFDF91CF91089580E090E0892B29F07D
:1003C0000E94480181110C940000089590E0FC0106
:1003D000E859FF4F3491FC01EC55FF4F2491FC018B
:1003E000E057FF4FE491EE2309F43BC0332339F18A
:1003F000333091F038F43130A9F0323001F584B562
:100400008F7D12C0373091F03830A1F03430B9F41C
:10041000809180008F7D03C0809180008F778093D2
:1004200080000DC084B58F7784BD09C08091B00075
:100430008F7703C08091B0008F7D8093B000F0E093
:10044000EE0FFF1FE458FF4FA591B4918FB7F894BA
:10045000EC91611103C020952E2301C02E2B2C930B
:100460008FBF08953FB7F8948091BB039091BC0370
:10047000A091BD03B091BE0326B5A89B05C02F3F38
:1004800019F00196A11DB11D3FBFBA2FA92F982FBA
:100490008827820F911DA11DB11DBC01CD0142E035
:1004A000660F771F881F991F4A95D1F708958F927D
:1004B0009F92AF92BF92CF92DF92EF92FF926B0129
:1004C0007C010E9432024B015C01C114D104E104A1
:1004D000F104F1F00E943202DC01CB018819990984
:1004E000AA09BB09883E9340A105B10570F321E03C
:1004F000C21AD108E108F10888EE880E83E0981E40
:10050000A11CB11CC114D104E104F10419F7DDCF21
:10051000FF90EF90DF90CF90BF90AF909F908F9023
:1005200008952FB7F8946091B7037091B803809144
:10053000B9039091BA032FBF0895262FFB019E2F78
:10054000921B981730F491919EBD0DB407FEFDCF1C
:10055000F6CF089560E08AE00E94E60183E090E033
:100560000197F1F761E08AE00C94E6010E94F70937
:100570006115710579F0FB0101900020E9F73197D1
:10058000AF01461B570BDC01ED91FC910280F3811A
:10059000E02D099480E090E008954F925F926F9271
:1005A0007F92EF92FF920F931F93CF93DF93CDB77C
:1005B000DEB7A1970FB6F894DEBF0FBECDBF7C01AA
:1005C000FA01CB0119A2223008F42AE08E010F5D56
:1005D0001F4F422E512C612C712CBF01A30192019F
:1005E0000E94A208F901CA01015011096A3014F4ED
:1005F000605D01C0695CD8016C93232B242B252BF3
:1006000061F7B801C7010E94B802A1960FB6F8942D
:10061000DEBF0FBECDBFDF91CF911F910F91FF9035
:10062000EF907F906F905F904F900895CF92DF9200
:10063000EF92FF92CF93DF936C01990FEE08FF08C2
:10064000F7FE21C0E091CC03F091CD030190F08141
:10065000E02D6DE28CEC93E00995EC0144275527E1
:10066000BA014C195D096E097F092AE08CEC93E010
:100670000E94CD028C0F9D1FDF91CF91FF90EF90D4
:10068000DF90CF9008952AE0B701A6018CEC93E0AB
:10069000DF91CF91FF90EF90DF90CF900C94CD023F
:1006A00063E373E00C94B8020F931F93CF93DF932F
:1006B000EC010E94B8028C01CE010E945003800F11
:1006C000911FDF91CF911F910F9108950C94B80263
:1006D000CF92DF92EF92FF92C82ED12CE12CF12C19
:1006E000803130F462E273E08CEC93E00E946603A8
:1006F00020E1B701A6018CEC93E0FF90EF90DF9032
:10070000CF900C94CD021F920F920FB60F9211242E
:100710002F933F934F935F936F937F938F939F9309
:10072000AF93BF93EF93FF938CEC93E00E94520141
:10073000FF91EF91BF91AF919F918F917F916F91B9
:100740005F914F913F912F910F900FBE0F901F908F
:1007500018951F920F920FB60F9211242F938F931B
:100760009F93EF93FF93E091DC03F091DD03808191
:10077000E091E203F091E30382FD12C09081809149
:10078000E5038F5F8F732091E603821751F0E091AC
:10079000E503F0E0E453FC4F958F8093E50301C03F
:1007A0008081FF91EF919F918F912F910F900FBEBC
:1007B0000F901F9018951F920F920FB60F92112451
:1007C0002F933F938F939F93AF93BF938091B703E2
:1007D0009091B803A091B903B091BA033091B603D8
:1007E00023E0230F2D3720F40196A11DB11D05C074
:1007F00026E8230F0296A11DB11D2093B603809316
:10080000B7039093B803A093B903B093BA03809150
:10081000BB039091BC03A091BD03B091BE030196B0
:10082000A11DB11D8093BB039093BC03A093BD0396
:10083000B093BE03BF91AF919F918F913F912F9144
:100840000F900FBE0F901F901895ECECF3E0138201
:10085000128288EE93E0A0E0B0E084839583A683C3
:10086000B78386E193E09183808385EC90E0958760
:10087000848784EC90E09787868780EC90E0918B6A
:10088000808B81EC90E0938B828B82EC90E0958B57
:10089000848B86EC90E0978B868B118E128E138E54
:1008A000148EE9E6F4E0168217821086118612860D
:1008B00013861486158616861786108A118A128A60
:1008C000138A148A158A0895CF93DF93CDB7DEB7C4
:1008D000A4970FB6F894DEBF0FBECDBF789484B551
:1008E000826084BD84B5816084BD85B5826085BD2C
:1008F00085B5816085BD80916E00816080936E00BA
:1009000010928100809181008260809381008091AB
:10091000810081608093810080918000816080935C
:1009200080008091B10084608093B1008091B0001C
:1009300081608093B00080917A00846080937A0017
:1009400080917A00826080937A0080917A00816041
:1009500080937A0080917A00806880937A00109268
:10096000C1001092AD041092AE041092AF04109228
:10097000B00410926B0410926C0410926D041092EB
:100980006E0468EB7BE080E090E00E9457028CEC04
:1009900093E09093AC048093AB040E9487000E9484
:1009A000910260936B0470936C0480936D04909338
:1009B0006E0464E273E08091AB049091AC040E94F9
:1009C00066036AE070E080E090E00E94570281E0F8
:1009D00080937F040E94870061E08AE00E94E60124
:1009E00088E00E94D00060E088E00E94E6011FB726
:1009F000F8948091BF03811124C0EAE9F0E084916A
:100A0000EEEAF0E09491E82FF0E0EE0FFF1FEA57D6
:100A1000FF4FA591B491EC91E92321F461E08AE0C4
:100A20000E94E6018AE00E94D0008CB580618CBDF6
:100A30008CB580648CBD8DE00E94D0008BE00E945C
:100A4000D0008091BF038F5F8093BF031FBF8CB521
:100A50008C7F81608CBD8DB58E7F8DBD83E0809352
:100A6000C20380E68093C30395E09093C003809314
:100A7000C103CE0101967C018CE0D7011D928A95BD
:100A8000E9F788EF898389E18A8386E18B8384EAA9
:100A90008C8384E190E00E94CA088C01FC011082E2
:100AA00081E081838DE382838EE683833496C8015F
:100AB0000A961192E817F907E1F7CE0107960E940E
:100AC000AF00D8011A969C931A971B968C931B978C
:100AD0001C96F70186E08E0D91919D938E13FCCFAD
:100AE000C7010E94AF00F801928B838B0E94AA027B
:100AF00060E08AE00E94E601B80184E10E949D0264
:100B000061E08AE00E94E601C8010E945F0964EF8B
:100B1000462E55245394612C712CCE0141966C01C4
:100B200076E0872E880E8BA21E012DE1220E311C4D
:100B3000E4E08E2E820C8CA20E949102672B682B1F
:100B4000692B41F40E949102623071058105910583
:100B500008F404C10E9491026093C8037093C90312
:100B60008093CA039093CB030091C4031091C503F3
:100B70002091C6033091C70360177107820793075E
:100B800040F46093C4037093C5038093C6039093AD
:100B9000C7030091C4031091C5032091C60330918F
:100BA000C7034B015C01801A910AA20AB30A95019E
:100BB00084010A3F11052105310508F4CFC0609377
:100BC000C4037093C5038093C6039093C7034092F8
:100BD0007704509278046092790470927A041092AB
:100BE0007B0410927C0410927D0410927E0480910C
:100BF0006F0490917004A0917104B091720480937D
:100C0000730490937404A0937504B09376040E94C7
:100C1000910260936F0470937004809371049093B9
:100C200072040E94910260936B0470936C04809331
:100C30006D0490936E040E9491024B015C0166E387
:100C400073E08091AB049091AC040E9466032AE0AB
:100C500041E050E060E070E08091AB049091AC0422
:100C60000E94CD026DE373E08091AB049091AC04DF
:100C70000E9466032AE0B501A4018091AB04909123
:100C8000AC040E94CD026FE373E08091AB049091BD
:100C9000AC040E94660380916F0490917004A0914F
:100CA0007104B0917204B501A401481B590B6A0B81
:100CB0007B0B2AE08091AB049091AC040E94CD02A2
:100CC0006FE373E08091AB049091AC040E946603E3
:100CD00040916F045091700460917104709172049E
:100CE0008091730490917404A0917504B09176047E
:100CF000481B590B6A0B7B0B2AE08091AB04909147
:100D0000AC040E94CD0261E473E08091AB04909149
:100D1000AC040E9466030E949102AB01BC012AE070
:100D20008091AB049091AC040E94CD0263E473E027
:100D30008091AB049091AC040E94540365E070E094
:100D400080E090E00E9457020E94910260936F043D
:100D50007093700480937104909372046AE473E05A
:100D60008CEC93E00E9454038CE0E6E0F1E0D601C5
:100D700001900D928A95E1F769E573E08CEC93E0C0
:100D80000E9454038E010A5E1F4F812C912C65E650
:100D900073E08CEC93E00E94660354012FEFA21ADB
:100DA000B20AC5010E94160360EB73E08CEC93E07D
:100DB0000E946603F801359780810E9468036AE605
:100DC00073E08CEC93E00E946603F8013497808115
:100DD0000E9468036AE673E08CEC93E00E9466036D
:100DE000F801339780810E9468036AE673E08CEC17
:100DF00093E00E946603F801329780810E946803A5
:100E00006AE673E08CEC93E00E946603F801319788
:100E100080810E9468036AE673E08CEC93E00E9494
:100E20006603D8018C910E9468038CEC93E00E94C9
:100E300050030A5F1F4F88248394912CB2E0AB16B5
:100E4000B10409F0A4CF8CEC93E00E94500384E13C
:100E500090E00E94CA088C0187E0F801808381E25B
:100E6000818384E2828382EB8383DE01579634960A
:100E7000C8010A962D912193E817F907D9F7CE01F9
:100E800047960E94AF00D8011A969C931A971B961A
:100E90008C931B971C96F60181918D938BA08E12DB
:100EA000FBCFC6010E94AF00D80152969C93529787
:100EB00053968C930E94AA0260E08AE00E94E601A9
:100EC000B80184E10E949D0261E08AE00E94E6018F
:100ED000C8010E945F0984E190E00E94CA088C0169
:100EE00087E0F801808383E2818389EB828384EE4B
:100EF00083833496C8010A961192E817F907E1F73F
:100F0000D8011A961C921A971B961C92F8013C96CF
:100F1000C80142961192E817F907E1F7F801128A21
:100F2000138A0E94AA0260E08AE00E94E601B801EA
:100F300084E10E949D0261E08AE00E94E601C8010E
:100F40000E945F0980E190E00E94CA088C0187E05E
:100F50008D8F82E28E8F82E38F8F86ED88A30E9431
:100F6000AA0260E08AE00E94E601F10181918EBD53
:100F70000DB407FEFDCF8CA08E12F8CF48015801AA
:100F800020E1A20EB11CF8019FEF9EBD0DB407FE3B
:100F9000FDCF8EB58193EA15FB05B9F761E08AE0D4
:100FA0000E94E601F70188E08E0DD4019D914D016C
:100FB00091938E13FACF8F8089A298849AA2C70149
:100FC0000E94AF004C01F8013896DE01199681911C
:100FD0008D93EA15FB05D9F7CE0109960E94AF0063
:100FE0002F8530E0322F22274889240F311D281702
:100FF000390781F4A9A08A2D90E0982F8827BAA0FC
:101000008B0D911D21E08815990509F420E0B22E81
:10101000B19402C0BB24BA94C8010E945F09BB20EE
:1010200039F06FE673E08CEC93E00E94540387C0C4
:1010300068E873E08CEC93E00E94540362E973E08B
:101040008CEC93E00E9454038E01085F1F4FA12C8B
:10105000B12C65E673E08CEC93E00E9466034501D9
:101060002FEF821A920AC4010E94160360EB73E00C
:101070008CEC93E00E946603F801379780810E9410
:1010800068036AE673E08CEC93E00E946603F80163
:10109000369780810E9468036AE673E08CEC93E0E7
:1010A0000E946603F801359780810E9468036AE612
:1010B00073E08CEC93E00E946603F8013497808122
:1010C0000E9468036AE673E08CEC93E00E9466037A
:1010D000F801339780810E9468036AE673E08CEC24
:1010E00093E00E946603F801329780810E946803B2
:1010F00062EA73E08CEC93E00E946603F80131979A
:1011000080810E9468036AE673E08CEC93E00E94A1
:101110006603D8018C910E9468038CEC93E00E94D6
:101120005003085F1F4FAA24A394B12CB2E08B1682
:10113000910409F08ECF8CEC93E00E9450030E9442
:10114000DC01FACCA1E21A2EAA1BBB1BFD010DC0CB
:10115000AA1FBB1FEE1FFF1FA217B307E407F50767
:1011600020F0A21BB30BE40BF50B661F771F881F43
:10117000991F1A9469F760957095809590959B01D9
:10118000AC01BD01CF010895EE0FFF1F0590F49152
:10119000E02D0994CF93DF938230910510F482E023
:1011A00090E0E091B304F091B40420E030E0C0E0BE
:1011B000D0E0309711F14081518148175907C0F0B4
:1011C0004817590761F482819381209719F09B8316
:1011D0008A832BC09093B4048093B30426C0211556
:1011E000310519F04217530718F49A01BE01DF01C7
:1011F000EF010280F381E02DDCCF2115310509F1EB
:10120000281B390B2430310590F412968D919C9156
:1012100013976115710521F0FB019383828304C04C
:101220009093B4048093B304FD01329644C0FD0151
:10123000E20FF31F81939193225031092D933C9338
:101240003AC02091B1043091B204232B41F4209193
:101250000201309103013093B2042093B104209134
:101260000001309101012115310541F42DB73EB740
:101270004091040150910501241B350BE091B1040C
:10128000F091B204E217F307A0F42E1B3F0B2817CE
:10129000390778F0AC014E5F5F4F2417350748F0EF
:1012A0004E0F5F1F5093B2044093B104819391930A
:1012B00002C0E0E0F0E0CF01DF91CF9108950F93FD
:1012C0001F93CF93DF93009709F48CC0FC013297F2
:1012D000138212820091B3041091B4040115110518
:1012E00081F420813181820F931F2091B1043091CC
:1012F000B2042817390779F5F093B204E093B104EA
:1013000071C0D80140E050E0AE17BF0750F412960C
:101310002D913C911397AD012115310509F1D901AA
:10132000F3CF9D01DA013383228360817181860FBF
:10133000971F8217930769F4EC0128813981260FE2
:10134000371F2E5F3F4F318320838A819B81938398
:101350008283452B29F4F093B404E093B30442C094
:101360001396FC93EE931297ED01499159919E01CA
:10137000240F351FE217F30771F480819181840FE8
:10138000951F029611969C938E938281938113965A
:101390009C938E931297E0E0F0E0D80112968D9125
:1013A0009C911397009719F0F8018C01F6CF8D915D
:1013B0009C9198012E5F3F4F820F931F2091B104A3
:1013C0003091B2042817390769F4309729F4109244
:1013D000B4041092B30402C0138212821093B204B8
:1013E0000093B104DF91CF911F910F91089581E097
:0C13F00090E0F8940C94FC09F894FFCFF6
:1013FC000000B50480006A0800180AA96A080018E1
:10140C000AA9000099C5ABCE320BCFD8561D641675
:10141C00FDD307F49E31AC3A35FFC82C51E963E299
:10142C00FA2797AD0E683C63A5A65875C1B0F3BBFF
:10143C006A7E9059099C3B97A2525F81C644F44F37
:10144C006D8A2E5BB79E85951C50E18378464A4D7C
:10145C00D38829AFB06A82611BA4E6777FB24DB9FD
:10146C00D47CB9F6203312388BFD762EEFEBDDE011
:10147C004425BE0227C715CC8C0971DAE81FDA1493
:10148C0043D1C5F35C366E3DF7F80A2B93EEA1E51C
:10149C003820C2075BC269C9F00C0DDF941AA61183
:1014AC003FD4525ECB9BF99060559D8604433648E1
:1014BC00AF8D55AACC6FFE6467A19A7203B731BC8D
:1014CC00A879EBA8726D4066D9A32470BDB58FBE08
:1014DC00167BEC5C75994792DE572384BA41884A97
:1014EC00118F7C05E5C0D7CB4E0EB3DD2A1818132F
:1014FC0081D67BF1E234D03F49FAB4292DEC1FE7B9
:10150C00862213A28A67B86C21A9DC7A45BF77B40E
:10151C00EE7114568D93BF98265DDB8E424B704056
:10152C00E985840F1DCA2FC1B6044BD7D212E0191E
:10153C0079DC83FB1A3E2835B1F04C23D5E6E7ED78
:10154C007E283DF9A43C96370FF2F2216BE459EF5B
:10155C00C02A3A0DA3C891C30806F5D56C105E1BC2
:10156C00C7DEAA543391019A985F658CFC49CE4230
:10157C005787ADA03465066E9FAB6278FBBDC9B6CC
:10158C005073D6514F947D9FE45A1989804CB247C1
:10159C002B82D1A548607A6BE3AE1E7D87B8B5B3BC
:1015AC002C7641FCD839EA3273F78E2417E125EA00
:1015BC00BC2F4608DFCDEDC6740389D01015221E52
:1015CC00BBDBF80A61CF53C4CA0137D2AE179C1CDF
:1015DC0005D9FFFE663B5430CDF53026A9E39BE8D8
:1015EC00022D6FA7F662C4695DACA07F39BA0BB14E
:1015FC0092746853F196C39D5A58A78B3E4E0C4576
:10160C009580000000007301EF003C011A012E01CF
:10161C00BA013000564D4450565F317C315F564D07
:10162C004450560D0A00564D4450455F003A323A2C
:10163C00007C005F564D4450450073656E64696EC6
:10164C0067207772636F6D6D0053656E74204279FD
:10165C00746573200020494320002C20307800450D
:10166C0072726F722072656164696E6720493243D1
:10167C002064657669636500476F742064617461EA
:10168C0021005265636569766564204279746573DF
:10169C0020002C20526563656976656420504543B3
:0616AC003A203078000036
:107E0000112484B714BE81FFF0D085E080938100F7
:107E100082E08093C00088E18093C10086E0809377
:107E2000C20080E18093C4008EE0C9D0259A86E02C
:107E300020E33CEF91E0309385002093840096BBD3
:107E4000B09BFECF1D9AA8958150A9F7CC24DD24C4
:107E500088248394B5E0AB2EA1E19A2EF3E0BF2EE7
:107E6000A2D0813461F49FD0082FAFD0023811F036
:107E7000013811F484E001C083E08DD089C08234E0
:107E800011F484E103C0853419F485E0A6D080C0E4
:107E9000853579F488D0E82EFF2485D0082F10E0AE
:107EA000102F00270E291F29000F111F8ED06801E7
:107EB0006FC0863521F484E090D080E0DECF843638
:107EC00009F040C070D06FD0082F6DD080E0C81688
:107ED00080E7D80618F4F601B7BEE895C0E0D1E017
:107EE00062D089930C17E1F7F0E0CF16F0E7DF06D8
:107EF00018F0F601B7BEE89568D007B600FCFDCFD4
:107F0000A601A0E0B1E02C9130E011968C91119780
:107F100090E0982F8827822B932B1296FA010C0160
:107F200087BEE89511244E5F5F4FF1E0A038BF0790
:107F300051F7F601A7BEE89507B600FCFDCF97BE46
:107F4000E89526C08437B1F42ED02DD0F82E2BD052
:107F50003CD0F601EF2C8F010F5F1F4F84911BD097
:107F6000EA94F801C1F70894C11CD11CFA94CF0C13
:107F7000D11C0EC0853739F428D08EE10CD085E9AC
:107F80000AD08FE07ACF813511F488E018D01DD067
:107F900080E101D065CF982F8091C00085FFFCCF94
:107FA0009093C60008958091C00087FFFCCF809118
:107FB000C00084FD01C0A8958091C6000895E0E648
:107FC000F0E098E1908380830895EDDF803219F02E
:107FD00088E0F5DFFFCF84E1DECF1F93182FE3DFCA
:107FE0001150E9F7F2DF1F91089580E0E8DFEE27F6
:047FF000FF270994CA
:027FFE00040479
:0400000300007E007B
:00000001FF