:100000000C9435000C945D000C945D000C945D0024
:100010000C945D000C945D000C945D000C945D00EC
:100020000C945D000C945D000C945D000C945D00DC
:100030000C945D000C945D000C945D000C945D00CC
:100040000C9407030C945D000C94D5020C94AF0241
:100050000C945D000C945D000C945D000C945D00AC
:100060000C945D000C945D00510311241FBECFEF72
:10007000D8E0DEBFCDBF22E0A2E8B1E001C01D9212
:10008000A837B207E1F711E0A0E0B1E0E6E2FDE059
:1000900002C005900D92A238B107D9F710E0C5E370
:1000A000D0E004C02197FE010E948606C433D10728
:1000B000C9F70E9490030C9491060C940000E3E9A8
:1000C000F1E0A089B18982E08C93A485B5851C926A
:1000D000A685B78580E18C93108EA489B58986E0CA
:1000E0008C93A289B3898C9180618C93A289B38906
:1000F0008C9188608C93A289B3898C9180688C9351
:100100000288F389E02D80818F7D80830895CF92CE
:10011000DF92EF92FF920F931F93CF93DF936C01C7
:100120007A018B01C0E0D0E0CE15DF0589F0D8015F
:100130006D918D01D601ED91FC910190F081E02D42
:10014000C6010995892B11F47E0102C02196ECCFDE
:10015000C701DF91CF911F910F91FF90EF90DF903A
:10016000CF900895FC01918D828D981761F0828D5A
:10017000DF01A80FB11D5D968C91928D9F5F9F73DB
:10018000928F90E008958FEF9FEF0895FC01918D7D
:10019000828D981731F0828DE80FF11D858D90E0EA
:1001A00008958FEF9FEF0895FC01918D228D892F87
:1001B00090E0805C9F4F821B91098F73992708956F
:1001C00083E991E00E94D40021E0892B09F420E02A
:1001D000822F0895FC01848DDF01A80FB11DA35A61
:1001E000BF4F2C91848D90E001968F739927848F57
:1001F000A689B7892C93A089B1898C9180648C934E
:10020000938D848D981306C00288F389E02D808138
:100210008F7D80830895EF92FF920F931F93CF936A
:10022000DF93EC0181E0888F9B8D8C8D981305C046
:10023000E889F989808185FD24C0F62E0B8D10E0B8
:100240000F5F1F4F0F731127E02E8C8DE8120CC02B
:100250000FB607FCFACFE889F989808185FFF5CFD1
:10026000CE010E94EA00F1CF8B8DFE01E80FF11D57
:10027000E35AFF4FF0820B8FEA89FB89808180620D
:1002800007C0EE89FF896083E889F98980818064ED
:10029000808381E090E0DF91CF911F910F91FF90DB
:1002A000EF900895CF93DF93EC01888D8823C9F0F8
:1002B000EA89FB89808185FD05C0A889B9898C916F
:1002C00086FD0FC00FB607FCF5CF808185FFF2CF0A
:1002D000A889B9898C9185FFEDCFCE010E94EA00F3
:1002E000E7CFDF91CF91089580E090E0892B29F04E
:1002F0000E94E00081110C94000008953FB7F8942B
:100300008091870190918801A0918901B0918A0123
:1003100026B5A89B05C02F3F19F00196A11DB11D60
:100320003FBFBA2FA92F982F8827820F911DA11D9B
:10033000B11DBC01CD0142E0660F771F881F991FD8
:100340004A95D1F708958F929F92AF92BF92CF9224
:10035000DF92EF92FF926B017C010E947E014B01C4
:100360005C01C114D104E104F104F1F00E947E01AA
:10037000DC01CB0188199909AA09BB09883E934081
:10038000A105B10570F321E0C21AD108E108F10816
:1003900088EE880E83E0981EA11CB11CC114D10404
:1003A000E104F10419F7DDCFFF90EF90DF90CF90DB
:1003B000BF90AF909F908F9008952FB7F894609161
:1003C00083017091840180918501909186012FBFF6
:1003D00008958EBD0DB407FEFDCF8EB508951F9311
:1003E000CF93DF931F92CDB7DEB7182F2A9885E001
:1003F00069830E94E901812F0E94E9016981862FAA
:100400000E94E90180E00E94E9012A9A0F90DF91A1
:10041000CF911F9108952A980E94E9018FEF0E94C1
:10042000E9012A9A0895CF93C82F2A9883E00E9461
:10043000E9018C2F0E94E9018FEF0E94E9012A9ABD
:10044000CF9108951F93CF93DF931F92CDB7DEB75F
:10045000182F2A9882E069830E94E901812F0E9467
:10046000E9016981862F0E94E9012A9A0F90DF91A4
:10047000CF911F9108950E948C066115710579F046
:10048000FB0101900020E9F73197AF01461B570BA4
:10049000DC01ED91FC910280F381E02D099480E074
:1004A00090E008954F925F926F927F92EF92FF9249
:1004B0000F931F93CF93DF93CDB7DEB7A1970FB6FE
:1004C000F894DEBF0FBECDBF7C01FA01CB0119A2AB
:1004D000223008F42AE08E010F5D1F4F422E512C6E
:1004E000612C712CBF01A30192010E946406F901E5
:1004F000CA01015011096A3014F4605D01C0695CE1
:10050000D8016C93232B242B252B61F7B801C7014D
:100510000E943D02A1960FB6F894DEBF0FBECDBF7C
:10052000DF91CF911F910F91FF90EF907F906F908F
:100530005F904F9008950F931F93CF93DF93EC013B
:100540000E943D028C016FE171E0CE010E943D02EC
:10055000800F911FDF91CF911F910F9108951F92EE
:100560000F920FB60F9211242F933F934F935F93E7
:100570006F937F938F939F93AF93BF93EF93FF936B
:1005800083E991E00E94EA00FF91EF91BF91AF9162
:100590009F918F917F916F915F914F913F912F919B
:1005A0000F900FBE0F901F9018951F920F920FB6CD
:1005B0000F9211242F938F939F93EF93FF93E091CA
:1005C000A301F091A4018081E091A901F091AA0119
:1005D00082FD12C090818091AC018F5F8F7320915A
:1005E000AD01821751F0E091AC01F0E0ED56FE4F05
:1005F000958F8093AC0101C08081FF91EF919F9115
:100600008F912F910F900FBE0F901F9018951F92F2
:100610000F920FB60F9211242F933F938F939F93B6
:10062000AF93BF938091830190918401A091850144
:10063000B09186013091820123E0230F2D3720F401
:100640000196A11DB11D05C026E8230F0296A11D2C
:10065000B11D209382018093830190938401A09324
:100660008501B09386018091870190918801A091C6
:100670008901B0918A010196A11DB11D8093870166
:1006800090938801A0938901B0938A01BF91AF91A3
:100690009F918F913F912F910F900FBE0F901F90C0
:1006A0001895E3E9F1E01382128288EE93E0A0E06E
:1006B000B0E084839583A683B78384E091E091833F
:1006C000808385EC90E09587848784EC90E0978721
:1006D000868780EC90E0918B808B81EC90E0938B0F
:1006E000828B82EC90E0958B848B86EC90E0978BEC
:1006F000868B118E128E138E148EE0E3F2E016823A
:100700001782108611861286138614861586168621
:100710001786108A118A128A138A148A158A0895F4
:10072000CF93DF93CDB7DEB72C970FB6F894DEBF2B
:100730000FBECDBF789484B5826084BD84B58160DE
:1007400084BD85B5826085BD85B5816085BD80919C
:100750006E00816080936E00109281008091810014
:10076000826080938100809181008160809381000C
:10077000809180008160809380008091B1008460CE
:100780008093B1008091B00081608093B00080912F
:100790007A00846080937A0080917A0082608093EE
:1007A0007A0080917A00816080937A0080917A004B
:1007B000806880937A001092C100109274021092A7
:1007C0007502109276021092770210923202109205
:1007D0003302109234021092350268EB7BE080E025
:1007E00090E00E94A30183E991E0909373028093CB
:1007F00072020E945F000E94DD01609332027093DA
:100800003302809334029093350260E171E080916D
:100810007202909173020E943D026AE070E080E0F3
:1008200090E00E94A30181E0809346020E945F0055
:100830002A9A229A2D982B982C98259A239A2498B4
:1008400052985A9A81E58CBD1DBC2A9880EC0E9472
:10085000E9012A9A85E38A95F1F700002A9882E057
:100860000E94E90188E20E94E90182E00E94E90118
:1008700080E90E94E90181E00E94E90183E00E9491
:10088000E9012A9A8AE20E941302813021F0289A13
:1008900062E271E016C060E08CE00E94220260E03B
:1008A0008DE00E94220260E680E60E94220260E65D
:1008B00080E70E94220260E08FE00E94220260E353
:1008C00071E083E991E00E949B0284EF882E9924D5
:1008D0009394A12CB12C90E4F92E25E0E22E30E384
:1008E000732E66246A946E019CE0C90ED11C0E948E
:1008F000DD01672B682B692B41F40E94DD0162301A
:1009000071058105910508F404C10E94DD01609321
:100910008F017093900180939101909392010091C7
:100920008B0110918C0120918D0130918E01601707
:1009300071078207930740F460938B0170938C01D9
:1009400080938D0190938E0100918B0110918C0109
:1009500020918D0130918E011B012C01201A310A4A
:10096000420A530A920181010A3F1105210531050E
:1009700008F4CFC060938B0170938C0180938D013C
:1009800090938E0180923E0290923F02A09240028C
:10099000B09241021092420210924302109244021D
:1009A000109245028091360290913702A091380250
:1009B000B091390280933A0290933B02A0933C029B
:1009C000B0933D020E94DD016093360270933702BE
:1009D00080933802909339020E94DD0160933202C5
:1009E0007093330280933402909335020E94DD01AC
:1009F0001B012C016CE371E08091720290917302F3
:100A00000E943D022AE041E050E060E070E0809109
:100A10007202909173020E94520263E471E080912D
:100A20007202909173020E943D022AE0B201A1017C
:100A300080917202909173020E94520265E471E00B
:100A400080917202909173020E943D028091360261
:100A500090913702A0913802B0913902B201A10100
:100A6000481B590B6A0B7B0B2AE080917202909114
:100A700073020E94520265E471E0809172029091CB
:100A800073020E943D0240913602509137026091FC
:100A900038027091390280913A0290913B02A09104
:100AA0003C02B0913D02481B590B6A0B7B0B2AE0BC
:100AB00080917202909173020E94520267E471E089
:100AC00080917202909173020E943D020E94DD01AA
:100AD000AB01BC012AE080917202909173020E94E6
:100AE000520269E471E080917202909173020E9457
:100AF0009B0265E070E080E090E00E94A3010E940C
:100B0000DD01609336027093370280933802909330
:100B10003902FC82ED827E826F821886F9861A86FF
:100B20001B8660E571E083E991E00E949B0260EE24
:100B30008FE00E94EF0180EA0E940B028C878C8577
:100B400082FF08C08C8584FF07C08C8586FD36C077
:100B500014E003C010E001C012E02A98812F8064E5
:100B60000E94E90186EC0E94E90180E20E94E9010D
:100B700080E00E94E90180E00E94E9018B81807E93
:100B800080618B8388E00E94E901CE0104962C01EC
:100B9000F20181912F010E94E9014C145D04C1F71B
:100BA0002A9AF5E0FA95F1F700002A98111101C090
:100BB00011E0812F80680E94E9012A9A62E671E0C3
:100BC00083E991E00E949B028DE20E941302482F6C
:100BD00050E060E070E02AE083E991E00E94520278
:100BE0006FE171E083E991E00E943D028DE10E9496
:100BF0001302482F50E060E070E02AE083E991E0C2
:100C00000E9452026FE171E083E991E00E943D028F
:100C10004A9951C080EB0E940B028C878C8586FD1F
:100C200005C08C8587FF47C084E901C080E92A9808
:100C30000E94E9018FEF0E94E901082F8FEF0E94C7
:100C4000E90182958695877098E0099F80011124BB
:100C5000082B8FEF0E94E9018FEF0E94E9018FEFCF
:100C60000E94E9018F70482E8C85512C541429F074
:100C70008FEF0E94E9015394F9CF2A9A8C8586FF61
:100C800002C061E001C062E08CE20E94EF016FE609
:100C900071E083E991E00E943D02A80160E070E00C
:100CA0002AE083E991E00E9452026FE171E083E95A
:100CB00091E00E943D0268EE73E080E090E00E94C7
:100CC000A3010E94740113CEA1E21A2EAA1BBB1B22
:100CD000FD010DC0AA1FBB1FEE1FFF1FA217B30708
:100CE000E407F50720F0A21BB30BE40BF50B661F1E
:100CF000771F881F991F1A9469F7609570958095E2
:100D000090959B01AC01BD01CF010895EE0FFF1F2F
:100D10000590F491E02D099481E090E0F8940C9412
:060D20009106F894FFCFDC
:100D2600000000000B018700D400B200C60052018B
:100D3600564D4450565F317C315F564D4450560DEA
:100D46000A0043414E20696E6974204641494C00B1
:100D560043414E20696E6974204F4B00564D4450F6
:100D6600455F003A323A007C005F564D44504500DC
:100D76004275696C742043414E206D6573736167DB
:100D860065006D6573736167652073656E740067D2
:100D96006F74206D6573736167652066726F6D2071
:020DA60000004B
:107E0000112484B714BE81FFF0D085E080938100F7
:107E100082E08093C00088E18093C10086E0809377
:107E2000C20080E18093C4008EE0C9D0259A86E02C
:107E300020E33CEF91E0309385002093840096BBD3
:107E4000B09BFECF1D9AA8958150A9F7CC24DD24C4
:107E500088248394B5E0AB2EA1E19A2EF3E0BF2EE7
:107E6000A2D0813461F49FD0082FAFD0023811F036
:107E7000013811F484E001C083E08DD089C08234E0
:107E800011F484E103C0853419F485E0A6D080C0E4
:107E9000853579F488D0E82EFF2485D0082F10E0AE
:107EA000102F00270E291F29000F111F8ED06801E7
:107EB0006FC0863521F484E090D080E0DECF843638
:107EC00009F040C070D06FD0082F6DD080E0C81688
:107ED00080E7D80618F4F601B7BEE895C0E0D1E017
:107EE00062D089930C17E1F7F0E0CF16F0E7DF06D8
:107EF00018F0F601B7BEE89568D007B600FCFDCFD4
:107F0000A601A0E0B1E02C9130E011968C91119780
:107F100090E0982F8827822B932B1296FA010C0160
:107F200087BEE89511244E5F5F4FF1E0A038BF0790
:107F300051F7F601A7BEE89507B600FCFDCF97BE46
:107F4000E89526C08437B1F42ED02DD0F82E2BD052
:107F50003CD0F601EF2C8F010F5F1F4F84911BD097
:107F6000EA94F801C1F70894C11CD11CFA94CF0C13
:107F7000D11C0EC0853739F428D08EE10CD085E9AC
:107F80000AD08FE07ACF813511F488E018D01DD067
:107F900080E101D065CF982F8091C00085FFFCCF94
:107FA0009093C60008958091C00087FFFCCF809118
:107FB000C00084FD01C0A8958091C6000895E0E648
:107FC000F0E098E1908380830895EDDF803219F02E
:107FD00088E0F5DFFFCF84E1DECF1F93182FE3DFCA
:107FE0001150E9F7F2DF1F91089580E0E8DFEE27F6
:047FF000FF270994CA
:027FFE00040479
:0400000300007E007B
:00000001FF